{
  "_format": "hh-sol-artifact-1",
  "contractName": "ToDo",
  "sourceName": "contracts/ToDo.sol",
  "abi": [
    {
      "inputs": [],
      "stateMutability": "nonpayable",
      "type": "constructor"
    },
    {
      "anonymous": false,
      "inputs": [
        {
          "indexed": false,
          "internalType": "uint256",
          "name": "id",
          "type": "uint256"
        },
        {
          "indexed": false,
          "internalType": "string",
          "name": "description",
          "type": "string"
        }
      ],
      "name": "TaskAdded",
      "type": "event"
    },
    {
      "anonymous": false,
      "inputs": [
        {
          "indexed": false,
          "internalType": "uint256",
          "name": "id",
          "type": "uint256"
        }
      ],
      "name": "TaskCompleted",
      "type": "event"
    },
    {
      "inputs": [
        {
          "internalType": "string",
          "name": "_description",
          "type": "string"
        }
      ],
      "name": "addTask",
      "outputs": [],
      "stateMutability": "nonpayable",
      "type": "function"
    },
    {
      "inputs": [
        {
          "internalType": "uint256",
          "name": "_id",
          "type": "uint256"
        }
      ],
      "name": "completeTask",
      "outputs": [],
      "stateMutability": "nonpayable",
      "type": "function"
    },
    {
      "inputs": [],
      "name": "getTasks",
      "outputs": [
        {
          "components": [
            {
              "internalType": "uint256",
              "name": "id",
              "type": "uint256"
            },
            {
              "internalType": "string",
              "name": "description",
              "type": "string"
            },
            {
              "internalType": "bool",
              "name": "completed",
              "type": "bool"
            }
          ],
          "internalType": "struct ToDo.Task[]",
          "name": "",
          "type": "tuple[]"
        }
      ],
      "stateMutability": "view",
      "type": "function"
    },
    {
      "inputs": [],
      "name": "owner",
      "outputs": [
        {
          "internalType": "address",
          "name": "",
          "type": "address"
        }
      ],
      "stateMutability": "view",
      "type": "function"
    },
    {
      "inputs": [
        {
          "internalType": "uint256",
          "name": "",
          "type": "uint256"
        }
      ],
      "name": "tasks",
      "outputs": [
        {
          "internalType": "uint256",
          "name": "id",
          "type": "uint256"
        },
        {
          "internalType": "string",
          "name": "description",
          "type": "string"
        },
        {
          "internalType": "bool",
          "name": "completed",
          "type": "bool"
        }
      ],
      "stateMutability": "view",
      "type": "function"
    },
    {
      "inputs": [
        {
          "internalType": "address",
          "name": "",
          "type": "address"
        }
      ],
      "name": "userTaskCount",
      "outputs": [
        {
          "internalType": "uint256",
          "name": "",
          "type": "uint256"
        }
      ],
      "stateMutability": "view",
      "type": "function"
    }
  ],
  "bytecode": "0x608060405234801561001057600080fd5b5033600260006101000a81548173ffffffffffffffffffffffffffffffffffffffff021916908373ffffffffffffffffffffffffffffffffffffffff160217905550610dfd806100616000396000f3fe608060405234801561001057600080fd5b50600436106100625760003560e01c806304a87e381461006757806358f9e7411461008557806367238562146100b55780638d977672146100d15780638da5cb5b14610103578063e1e2955814610121575b600080fd5b61006f61013d565b60405161007c9190610a10565b60405180910390f35b61009f600480360381019061009a919061074c565b610253565b6040516100ac9190610a72565b60405180910390f35b6100cf60048036038101906100ca9190610775565b61026b565b005b6100eb60048036038101906100e691906107b6565b6103a4565b6040516100fa93929190610abd565b60405180910390f35b61010b610473565b60405161011891906109f5565b60405180910390f35b61013b600480360381019061013691906107b6565b610499565b005b60606000805480602002602001604051908101604052809291908181526020016000905b8282101561024a57838290600052602060002090600302016040518060600160405290816000820154815260200160018201805461019e90610c80565b80601f01602080910402602001604051908101604052809291908181526020018280546101ca90610c80565b80156102175780601f106101ec57610100808354040283529160200191610217565b820191906000526020600020905b8154815290600101906020018083116101fa57829003601f168201915b505050505081526020016002820160009054906101000a900460ff16151515158152505081526020019060010190610161565b50505050905090565b60016020528060005260406000206000915090505481565b6000604051806060016040528060008054905081526020018381526020016000151581525090806001815401808255809150506001900390600052602060002090600302016000909190919091506000820151816000015560208201518160010190805190602001906102df929190610617565b5060408201518160020160006101000a81548160ff0219169083151502179055505050600160003373ffffffffffffffffffffffffffffffffffffffff1673ffffffffffffffffffffffffffffffffffffffff168152602001908152602001600020600081548092919061035290610cb2565b91905055507f2ee7ce8bac091b03a0c391c07ee88a246bdd72bdc6b1ef1ce4d99220595d32c5600160008054905061038a9190610bc2565b82604051610399929190610a8d565b60405180910390a150565b600081815481106103b457600080fd5b90600052602060002090600302016000915090508060000154908060010180546103dd90610c80565b80601f016020809104026020016040519081016040528092919081815260200182805461040990610c80565b80156104565780601f1061042b57610100808354040283529160200191610456565b820191906000526020600020905b81548152906001019060200180831161043957829003601f168201915b5050505050908060020160009054906101000a900460ff16905083565b600260009054906101000a900473ffffffffffffffffffffffffffffffffffffffff1681565b60008054905081106104e0576040517f08c379a00000000000000000000000000000000000000000000000000000000081526004016104d790610a52565b60405180910390fd5b6000818154811061051a577f4e487b7100000000000000000000000000000000000000000000000000000000600052603260045260246000fd5b906000526020600020906003020160020160009054906101000a900460ff1615610579576040517f08c379a000000000000000000000000000000000000000000000000000000000815260040161057090610a32565b60405180910390fd5b6001600082815481106105b5577f4e487b7100000000000000000000000000000000000000000000000000000000600052603260045260246000fd5b906000526020600020906003020160020160006101000a81548160ff0219169083151502179055507fc1fa7142cfb933d0855114a3bffde296944c30b727f297c14d0db4d553d3a5c78160405161060c9190610a72565b60405180910390a150565b82805461062390610c80565b90600052602060002090601f016020900481019282610645576000855561068c565b82601f1061065e57805160ff191683800117855561068c565b8280016001018555821561068c579182015b8281111561068b578251825591602001919060010190610670565b5b509050610699919061069d565b5090565b5b808211156106b657600081600090555060010161069e565b5090565b60006106cd6106c884610b2c565b610afb565b9050828152602081018484840111156106e557600080fd5b6106f0848285610c3e565b509392505050565b60008135905061070781610d99565b92915050565b600082601f83011261071e57600080fd5b813561072e8482602086016106ba565b91505092915050565b60008135905061074681610db0565b92915050565b60006020828403121561075e57600080fd5b600061076c848285016106f8565b91505092915050565b60006020828403121561078757600080fd5b600082013567ffffffffffffffff8111156107a157600080fd5b6107ad8482850161070d565b91505092915050565b6000602082840312156107c857600080fd5b60006107d684828501610737565b91505092915050565b60006107eb8383610987565b905092915050565b6107fc81610bf6565b82525050565b600061080d82610b6c565b6108178185610b8f565b93508360208202850161082985610b5c565b8060005b85811015610865578484038952815161084685826107df565b945061085183610b82565b925060208a0199505060018101905061082d565b50829750879550505050505092915050565b61088081610c08565b82525050565b61088f81610c08565b82525050565b60006108a082610b77565b6108aa8185610ba0565b93506108ba818560208601610c4d565b6108c381610d88565b840191505092915050565b60006108d982610b77565b6108e38185610bb1565b93506108f3818560208601610c4d565b6108fc81610d88565b840191505092915050565b6000610914601683610bb1565b91507f5461736b20616c726561647920636f6d706c65746564000000000000000000006000830152602082019050919050565b6000610954600f83610bb1565b91507f496e76616c6964207461736b20494400000000000000000000000000000000006000830152602082019050919050565b600060608301600083015161099f60008601826109d7565b50602083015184820360208601526109b78282610895565b91505060408301516109cc6040860182610877565b508091505092915050565b6109e081610c34565b82525050565b6109ef81610c34565b82525050565b6000602082019050610a0a60008301846107f3565b92915050565b60006020820190508181036000830152610a2a8184610802565b905092915050565b60006020820190508181036000830152610a4b81610907565b9050919050565b60006020820190508181036000830152610a6b81610947565b9050919050565b6000602082019050610a8760008301846109e6565b92915050565b6000604082019050610aa260008301856109e6565b8181036020830152610ab481846108ce565b90509392505050565b6000606082019050610ad260008301866109e6565b8181036020830152610ae481856108ce565b9050610af36040830184610886565b949350505050565b6000604051905081810181811067ffffffffffffffff82111715610b2257610b21610d59565b5b8060405250919050565b600067ffffffffffffffff821115610b4757610b46610d59565b5b601f19601f8301169050602081019050919050565b6000819050602082019050919050565b600081519050919050565b600081519050919050565b6000602082019050919050565b600082825260208201905092915050565b600082825260208201905092915050565b600082825260208201905092915050565b6000610bcd82610c34565b9150610bd883610c34565b925082821015610beb57610bea610cfb565b5b828203905092915050565b6000610c0182610c14565b9050919050565b60008115159050919050565b600073ffffffffffffffffffffffffffffffffffffffff82169050919050565b6000819050919050565b82818337600083830152505050565b60005b83811015610c6b578082015181840152602081019050610c50565b83811115610c7a576000848401525b50505050565b60006002820490506001821680610c9857607f821691505b60208210811415610cac57610cab610d2a565b5b50919050565b6000610cbd82610c34565b91507fffffffffffffffffffffffffffffffffffffffffffffffffffffffffffffffff821415610cf057610cef610cfb565b5b600182019050919050565b7f4e487b7100000000000000000000000000000000000000000000000000000000600052601160045260246000fd5b7f4e487b7100000000000000000000000000000000000000000000000000000000600052602260045260246000fd5b7f4e487b7100000000000000000000000000000000000000000000000000000000600052604160045260246000fd5b6000601f19601f8301169050919050565b610da281610bf6565b8114610dad57600080fd5b50565b610db981610c34565b8114610dc457600080fd5b5056fea2646970667358221220255c1920c2c012bef96274c5765d46ba03863e5ea621acc118f6fb653d5c233264736f6c63430008000033",
  "linkReferences": {},
  "deployedLinkReferences": {}
}